{
  "_format": "hh-sol-artifact-1",
  "contractName": "Treasury",
  "sourceName": "contracts/Treasury.sol",
  "abi": [
    {
      "anonymous": false,
      "inputs": [
        {
          "indexed": true,
          "internalType": "address",
          "name": "previousOwner",
          "type": "address"
        },
        {
          "indexed": true,
          "internalType": "address",
          "name": "newOwner",
          "type": "address"
        }
      ],
      "name": "OwnershipTransferred",
      "type": "event"
    },
    {
      "inputs": [],
      "name": "getBalance",
      "outputs": [
        {
          "internalType": "uint256",
          "name": "",
          "type": "uint256"
        }
      ],
      "stateMutability": "view",
      "type": "function"
    },
    {
      "inputs": [],
      "name": "owner",
      "outputs": [
        {
          "internalType": "address",
          "name": "",
          "type": "address"
        }
      ],
      "stateMutability": "view",
      "type": "function"
    },
    {
      "inputs": [],
      "name": "renounceOwnership",
      "outputs": [],
      "stateMutability": "nonpayable",
      "type": "function"
    },
    {
      "inputs": [
        {
          "internalType": "address payable",
          "name": "to",
          "type": "address"
        },
        {
          "internalType": "uint256",
          "name": "amount",
          "type": "uint256"
        }
      ],
      "name": "transferFunds",
      "outputs": [],
      "stateMutability": "nonpayable",
      "type": "function"
    },
    {
      "inputs": [
        {
          "internalType": "address",
          "name": "newOwner",
          "type": "address"
        }
      ],
      "name": "transferOwnership",
      "outputs": [],
      "stateMutability": "nonpayable",
      "type": "function"
    },
    {
      "stateMutability": "payable",
      "type": "receive"
    }
  ],
  "bytecode": "0x608060405234801561001057600080fd5b5061002d61002261003260201b60201c565b61003a60201b60201c565b6100fe565b600033905090565b60008060009054906101000a900473ffffffffffffffffffffffffffffffffffffffff169050816000806101000a81548173ffffffffffffffffffffffffffffffffffffffff021916908373ffffffffffffffffffffffffffffffffffffffff1602179055508173ffffffffffffffffffffffffffffffffffffffff168173ffffffffffffffffffffffffffffffffffffffff167f8be0079c531659141344cd1fd0a4f28419497f9722a3daafe3b4186f6b6457e060405160405180910390a35050565b61070a8061010d6000396000f3fe60806040526004361061004e5760003560e01c806312065fe01461005a578063715018a6146100855780638da5cb5b1461009c578063990dc9db146100c7578063f2fde38b146100f057610055565b3661005557005b600080fd5b34801561006657600080fd5b5061006f610119565b60405161007c91906103da565b60405180910390f35b34801561009157600080fd5b5061009a610121565b005b3480156100a857600080fd5b506100b1610135565b6040516100be9190610436565b60405180910390f35b3480156100d357600080fd5b506100ee60048036038101906100e991906104c0565b61015e565b005b3480156100fc57600080fd5b506101176004803603810190610112919061052c565b6101f4565b005b600047905090565b610129610277565b61013360006102f5565b565b60008060009054906101000a900473ffffffffffffffffffffffffffffffffffffffff16905090565b610166610277565b804710156101a9576040517f08c379a00000000000000000000000000000000000000000000000000000000081526004016101a0906105b6565b60405180910390fd5b8173ffffffffffffffffffffffffffffffffffffffff166108fc829081150290604051600060405180830381858888f193505050501580156101ef573d6000803e3d6000fd5b505050565b6101fc610277565b600073ffffffffffffffffffffffffffffffffffffffff168173ffffffffffffffffffffffffffffffffffffffff160361026b576040517f08c379a000000000000000000000000000000000000000000000000000000000815260040161026290610648565b60405180910390fd5b610274816102f5565b50565b61027f6103b9565b73ffffffffffffffffffffffffffffffffffffffff1661029d610135565b73ffffffffffffffffffffffffffffffffffffffff16146102f3576040517f08c379a00000000000000000000000000000000000000000000000000000000081526004016102ea906106b4565b60405180910390fd5b565b60008060009054906101000a900473ffffffffffffffffffffffffffffffffffffffff169050816000806101000a81548173ffffffffffffffffffffffffffffffffffffffff021916908373ffffffffffffffffffffffffffffffffffffffff1602179055508173ffffffffffffffffffffffffffffffffffffffff168173ffffffffffffffffffffffffffffffffffffffff167f8be0079c531659141344cd1fd0a4f28419497f9722a3daafe3b4186f6b6457e060405160405180910390a35050565b600033905090565b6000819050919050565b6103d4816103c1565b82525050565b60006020820190506103ef60008301846103cb565b92915050565b600073ffffffffffffffffffffffffffffffffffffffff82169050919050565b6000610420826103f5565b9050919050565b61043081610415565b82525050565b600060208201905061044b6000830184610427565b92915050565b600080fd5b6000610461826103f5565b9050919050565b61047181610456565b811461047c57600080fd5b50565b60008135905061048e81610468565b92915050565b61049d816103c1565b81146104a857600080fd5b50565b6000813590506104ba81610494565b92915050565b600080604083850312156104d7576104d6610451565b5b60006104e58582860161047f565b92505060206104f6858286016104ab565b9150509250929050565b61050981610415565b811461051457600080fd5b50565b60008135905061052681610500565b92915050565b60006020828403121561054257610541610451565b5b600061055084828501610517565b91505092915050565b600082825260208201905092915050565b7f496e73756666696369656e742074726561737572792062616c616e6365000000600082015250565b60006105a0601d83610559565b91506105ab8261056a565b602082019050919050565b600060208201905081810360008301526105cf81610593565b9050919050565b7f4f776e61626c653a206e6577206f776e657220697320746865207a65726f206160008201527f6464726573730000000000000000000000000000000000000000000000000000602082015250565b6000610632602683610559565b915061063d826105d6565b604082019050919050565b6000602082019050818103600083015261066181610625565b9050919050565b7f4f776e61626c653a2063616c6c6572206973206e6f7420746865206f776e6572600082015250565b600061069e602083610559565b91506106a982610668565b602082019050919050565b600060208201905081810360008301526106cd81610691565b905091905056fea2646970667358221220bcd3244c591f809f6f2af25fdf8f9caf5e3d7135f6ca9183b37a422c17ac0fe864736f6c63430008140033",
  "linkReferences": {},
  "deployedLinkReferences": {}
}