{
  "_format": "hh-sol-artifact-1",
  "contractName": "ProposalExecutor",
  "sourceName": "contracts/ProposalExecutor.sol",
  "abi": [
    {
      "inputs": [
        {
          "internalType": "address",
          "name": "_governance",
          "type": "address"
        }
      ],
      "stateMutability": "nonpayable",
      "type": "constructor"
    },
    {
      "inputs": [
        {
          "internalType": "uint256",
          "name": "_proposalId",
          "type": "uint256"
        }
      ],
      "name": "executeProposal",
      "outputs": [],
      "stateMutability": "nonpayable",
      "type": "function"
    },
    {
      "inputs": [],
      "name": "governance",
      "outputs": [
        {
          "internalType": "contract Governance",
          "name": "",
          "type": "address"
        }
      ],
      "stateMutability": "view",
      "type": "function"
    }
  ],
  "bytecode": "0x608060405234801561001057600080fd5b50604051610817380380610817833981810160405281019061003291906100db565b806000806101000a81548173ffffffffffffffffffffffffffffffffffffffff021916908373ffffffffffffffffffffffffffffffffffffffff16021790555050610108565b600080fd5b600073ffffffffffffffffffffffffffffffffffffffff82169050919050565b60006100a88261007d565b9050919050565b6100b88161009d565b81146100c357600080fd5b50565b6000815190506100d5816100af565b92915050565b6000602082840312156100f1576100f0610078565b5b60006100ff848285016100c6565b91505092915050565b610700806101176000396000f3fe608060405234801561001057600080fd5b50600436106100365760003560e01c80630d61b5191461003b5780635aa6e67514610057575b600080fd5b610055600480360381019061005091906102ab565b610075565b005b61005f61023d565b60405161006c9190610357565b60405180910390f35b60008060008060008060009054906101000a900473ffffffffffffffffffffffffffffffffffffffff1673ffffffffffffffffffffffffffffffffffffffff1663c7f758a8876040518263ffffffff1660e01b81526004016100d79190610381565b600060405180830381865afa1580156100f4573d6000803e3d6000fd5b505050506040513d6000823e3d601f19601f8201168201806040525081019061011d919061054a565b945094509450945094508015610168576040517f08c379a000000000000000000000000000000000000000000000000000000000815260040161015f9061063e565b60405180910390fd5b8183116101aa576040517f08c379a00000000000000000000000000000000000000000000000000000000081526004016101a1906106aa565b60405180910390fd5b60008054906101000a900473ffffffffffffffffffffffffffffffffffffffff1673ffffffffffffffffffffffffffffffffffffffff1663f6405119876040518263ffffffff1660e01b81526004016102039190610381565b600060405180830381600087803b15801561021d57600080fd5b505af1158015610231573d6000803e3d6000fd5b50505050505050505050565b60008054906101000a900473ffffffffffffffffffffffffffffffffffffffff1681565b6000604051905090565b600080fd5b600080fd5b6000819050919050565b61028881610275565b811461029357600080fd5b50565b6000813590506102a58161027f565b92915050565b6000602082840312156102c1576102c061026b565b5b60006102cf84828501610296565b91505092915050565b600073ffffffffffffffffffffffffffffffffffffffff82169050919050565b6000819050919050565b600061031d610318610313846102d8565b6102f8565b6102d8565b9050919050565b600061032f82610302565b9050919050565b600061034182610324565b9050919050565b61035181610336565b82525050565b600060208201905061036c6000830184610348565b92915050565b61037b81610275565b82525050565b60006020820190506103966000830184610372565b92915050565b6000815190506103ab8161027f565b92915050565b600080fd5b600080fd5b6000601f19601f8301169050919050565b7f4e487b7100000000000000000000000000000000000000000000000000000000600052604160045260246000fd5b610404826103bb565b810181811067ffffffffffffffff82111715610423576104226103cc565b5b80604052505050565b6000610436610261565b905061044282826103fb565b919050565b600067ffffffffffffffff821115610462576104616103cc565b5b61046b826103bb565b9050602081019050919050565b60005b8381101561049657808201518184015260208101905061047b565b60008484015250505050565b60006104b56104b084610447565b61042c565b9050828152602081018484840111156104d1576104d06103b6565b5b6104dc848285610478565b509392505050565b600082601f8301126104f9576104f86103b1565b5b81516105098482602086016104a2565b91505092915050565b60008115159050919050565b61052781610512565b811461053257600080fd5b50565b6000815190506105448161051e565b92915050565b600080600080600060a086880312156105665761056561026b565b5b60006105748882890161039c565b955050602086015167ffffffffffffffff81111561059557610594610270565b5b6105a1888289016104e4565b94505060406105b28882890161039c565b93505060606105c38882890161039c565b92505060806105d488828901610535565b9150509295509295909350565b600082825260208201905092915050565b7f50726f706f73616c20616c726561647920657865637574656400000000000000600082015250565b60006106286019836105e1565b9150610633826105f2565b602082019050919050565b600060208201905081810360008301526106578161061b565b9050919050565b7f50726f706f73616c206e6f7420617070726f7665640000000000000000000000600082015250565b60006106946015836105e1565b915061069f8261065e565b602082019050919050565b600060208201905081810360008301526106c381610687565b905091905056fea264697066735822122076757f72eda0997a7c993a93cca05339f58291904eb2cfda47440fdeb9b8df9d64736f6c63430008140033",
  "linkReferences": {},
  "deployedLinkReferences": {}
}