{
  "_format": "hh-sol-artifact-1",
  "contractName": "Governance",
  "sourceName": "contracts/Governance.sol",
  "abi": [
    {
      "inputs": [
        {
          "internalType": "uint256",
          "name": "_proposalId",
          "type": "uint256"
        }
      ],
      "name": "getProposal",
      "outputs": [
        {
          "internalType": "uint256",
          "name": "id",
          "type": "uint256"
        },
        {
          "internalType": "string",
          "name": "description",
          "type": "string"
        },
        {
          "internalType": "uint256",
          "name": "votesFor",
          "type": "uint256"
        },
        {
          "internalType": "uint256",
          "name": "votesAgainst",
          "type": "uint256"
        },
        {
          "internalType": "bool",
          "name": "executed",
          "type": "bool"
        }
      ],
      "stateMutability": "view",
      "type": "function"
    },
    {
      "inputs": [
        {
          "internalType": "uint256",
          "name": "_proposalId",
          "type": "uint256"
        }
      ],
      "name": "markExecuted",
      "outputs": [],
      "stateMutability": "nonpayable",
      "type": "function"
    },
    {
      "inputs": [
        {
          "internalType": "uint256",
          "name": "",
          "type": "uint256"
        }
      ],
      "name": "proposals",
      "outputs": [
        {
          "internalType": "uint256",
          "name": "id",
          "type": "uint256"
        },
        {
          "internalType": "string",
          "name": "description",
          "type": "string"
        },
        {
          "internalType": "uint256",
          "name": "votesFor",
          "type": "uint256"
        },
        {
          "internalType": "uint256",
          "name": "votesAgainst",
          "type": "uint256"
        },
        {
          "internalType": "bool",
          "name": "executed",
          "type": "bool"
        }
      ],
      "stateMutability": "view",
      "type": "function"
    }
  ],
  "bytecode": "0x608060405234801561001057600080fd5b5061057f806100206000396000f3fe608060405234801561001057600080fd5b50600436106100415760003560e01c8063013cf08b14610046578063c7f758a81461007a578063f6405119146100ae575b600080fd5b610060600480360381019061005b919061033c565b6100ca565b604051610071959493929190610423565b60405180910390f35b610094600480360381019061008f919061033c565b610195565b6040516100a5959493929190610423565b60405180910390f35b6100c860048036038101906100c3919061033c565b610278565b005b60006020528060005260406000206000915090508060000154908060010180546100f3906104ac565b80601f016020809104026020016040519081016040528092919081815260200182805461011f906104ac565b801561016c5780601f106101415761010080835404028352916020019161016c565b820191906000526020600020905b81548152906001019060200180831161014f57829003601f168201915b5050505050908060020154908060030154908060040160009054906101000a900460ff16905085565b600060606000806000806000808881526020019081526020016000209050806000015481600101826002015483600301548460040160009054906101000a900460ff168380546101e4906104ac565b80601f0160208091040260200160405190810160405280929190818152602001828054610210906104ac565b801561025d5780601f106102325761010080835404028352916020019161025d565b820191906000526020600020905b81548152906001019060200180831161024057829003601f168201915b50505050509350955095509550955095505091939590929450565b600080600083815260200190815260200160002090508060040160009054906101000a900460ff16156102e0576040517f08c379a00000000000000000000000000000000000000000000000000000000081526004016102d790610529565b60405180910390fd5b60018160040160006101000a81548160ff0219169083151502179055505050565b600080fd5b6000819050919050565b61031981610306565b811461032457600080fd5b50565b60008135905061033681610310565b92915050565b60006020828403121561035257610351610301565b5b600061036084828501610327565b91505092915050565b61037281610306565b82525050565b600081519050919050565b600082825260208201905092915050565b60005b838110156103b2578082015181840152602081019050610397565b60008484015250505050565b6000601f19601f8301169050919050565b60006103da82610378565b6103e48185610383565b93506103f4818560208601610394565b6103fd816103be565b840191505092915050565b60008115159050919050565b61041d81610408565b82525050565b600060a0820190506104386000830188610369565b818103602083015261044a81876103cf565b90506104596040830186610369565b6104666060830185610369565b6104736080830184610414565b9695505050505050565b7f4e487b7100000000000000000000000000000000000000000000000000000000600052602260045260246000fd5b600060028204905060018216806104c457607f821691505b6020821081036104d7576104d661047d565b5b50919050565b7f50726f706f73616c20616c726561647920657865637574656400000000000000600082015250565b6000610513601983610383565b915061051e826104dd565b602082019050919050565b6000602082019050818103600083015261054281610506565b905091905056fea26469706673582212201b7b2207b98c8fe1b6c56bab91e2ebb25cb963bedc9dd99160e6bc6902b9203964736f6c63430008140033",
  "linkReferences": {},
  "deployedLinkReferences": {}
}